S01900004763634170706C69636174696F6E3131352E73726563F3
S11300000C942A000C9447000C9447000C9447006D
S11300100C9447000C9447000C9447000C9449003E
S11300200C9447000C9447000C9447000C94470030
S11300300C9447000C9447000C9447000C94470020
S11300400C9447000C9447000C9447000C94470010
S11300500C94470011241FBECFE5D8E0DEBFCDBF0E
S113006011E0A0E6B0E0E4E2F1E002C005900D92F8
S1130070A036B107D9F721E0A0E6B1E001C01D9296
S1130080A236B207E1F70E9476000C9490000C941B
S113009000001F920F920FB60F9211248F939F931B
S11300A0EF93FF93E0916001F0916101EE0FFF1F68
S11300B0E05AFF4F808183BD80916001909161017E
S11300C00196803891052CF490936101809360012E
S11300D004C01092610110926001FF91EF919F9111
S11300E08F910F900FBE0F901F90189512BA80E851
S11300F081BB1FBC89E08EBD1DBC1CBC17BC16BCDB
S113010084E08BBD82EE8ABD19BC18BC12BC89E6A2
S113011085BD14BC13BC80E189BF78940000FECF78
S1070120F894FFCF7D
S11301247F0086008C00920098009E00A400AA0020
S1130134B000B600BB00C100C600CB00D000D5009F
S1130144D900DE00E200E600E900EC00F000F20071
S1130154F500F700F900FB00FC00FD00FE00FE00C2
S1130164FE00FE00FE00FD00FC00FB00F900F700A9
S1130174F500F200F000EC00E900E600E200DE0025
S1130184D900D500D000CB00C600C100BB00B60026
S1130194B000AA00A4009E00980092008C0086007F
S11301A47F00790073006D00670061005B005500F7
S11301B44F00490044003E00390034002F002A0057
S11301C4260021001D001900160013000F000D0065
S11301D40A000800060004000300020001000100F4
S11301E400000100010002000300040006000800EE
S11301F40A000D000F001300160019001D00210051
S113020426002A002F00340039003E00440049002F
S11302144F0055005B00610067006D0073007900B6
S9030000FC
